:020000040800F2
:100000000050002055290008652700086B270008CC
:1000100071270008772700087D27000800000000EE
:10002000000000000000000000000000832700081E
:100030008F270008000000009B270008A727000862
:100040009D2900089D2900089D2900089D29000878
:100050009D2900089D2900089D2900089D29000868
:100060009D2900089D2900089D2900089D29000858
:100070009D2900089D2900089D2900089D29000848
:100080009D2900089D2900089D2900089D29000838
:100090009D2900089D2900089D2900089D29000828
:1000A0009D2900089D2900089D2900089D29000818
:1000B0009D2900089D2900089D2900089D29000808
:1000C0009D2900089D2900089D2900089D290008F8
:1000D0009D290008B52700089D2900089D290008D2
:1000E0009D2900089D2900089D29000800000000A6
:1000F0000000000000000000000000000000000000
:0C01000000000000000000005FF808F1A3
:1001100010B5054C237833B9044B13B10448AFF341
:1001200000800123237010BDE001002000000000CA
:100130007CA0000808B5034B1BB103490348AFF38B
:10014000008008BD00000000E40100207CA0000841
:10015000034613F8012B002AFBD1181A0138704707
:1001600081F0004102E000BF83F0004330B54FEA68
:1001700041044FEA430594EA050F08BF90EA020FD5
:100180001FBF54EA000C55EA020C7FEA645C7FEA68
:10019000655C00F0E2804FEA5454D4EB5555B8BF8B
:1001A0006D420CDD2C4480EA020281EA030382EAFC
:1001B000000083EA010180EA020281EA0303362D8E
:1001C00088BF30BD11F0004F4FEA01314FF4801C61
:1001D0004CEA113102D0404261EB410113F0004F73
:1001E0004FEA03334CEA133302D0524263EB43032A
:1001F00094EA050F00F0A780A4F10104D5F1200EC8
:100200000DDB02FA0EFC22FA05F2801841F1000122
:1002100003FA0EF2801843FA05F359410EE0A5F1F6
:1002200020050EF1200E012A03FA0EFC28BF4CF027
:10023000020C43FA05F3C01851EBE37101F00045DD
:1002400007D54FF0000EDCF1000C7EEB00006EEBEA
:100250000101B1F5801F1BD3B1F5001F0CD3490874
:100260005FEA30004FEA3C0C04F101044FEA4452CB
:1002700012F5800F80F09A80BCF1004F08BF5FEA52
:10028000500C50F1000041EB045141EA050130BD32
:100290005FEA4C0C404141EB0101013C28BFB1F544
:1002A000801FE9D291F0000F04BF01460020B1FA8F
:1002B00081F308BF2033A3F10B03B3F120020CDA62
:1002C0000C3208DD02F1140CC2F10C0201FA0CF040
:1002D00021FA02F10CE002F11402D8BFC2F1200CA5
:1002E00001FA02F120FA0CFCDCBF41EA0C0190405B
:1002F000E41AA2BF01EB0451294330BD6FEA0404A4
:100300001F3C1CDA0C340EDC04F11404C4F120028E
:1003100020FA04F001FA02F340EA030021FA04F3A0
:1003200045EA030130BDC4F10C04C4F1200220FAF7
:1003300002F001FA04F340EA0300294630BD21FA35
:1003400004F0294630BD94F0000F83F4801306BFFB
:1003500081F480110134013D4EE77FEA645C18BFEF
:100360007FEA655C29D094EA050F08BF90EA020F86
:1003700005D054EA000C04BF1946104630BD91EA7E
:10038000030F1EBF0021002030BD5FEA545C05D181
:100390004000494128BF41F0004130BD14F58004C0
:1003A0003CBF01F5801130BD01F0004545F0FE4134
:1003B00041F470014FF0000030BD7FEA645C1ABF69
:1003C000194610467FEA655C1CBF0B46024650EAA0
:1003D000013406BF52EA033591EA030F41F40021CC
:1003E00030BD00BF90F0000F04BF0021704730B552
:1003F0004FF4806404F132044FF000054FF0000127
:1004000050E700BF90F0000F04BF0021704730B5E7
:100410004FF4806404F1320410F0004548BF4042BC
:100420004FF000013EE700BF42004FEAE2014FEA11
:1004300031014FEA02701FBF12F07F4393F07F4FEC
:1004400081F06051704732F07F4208BF704793F0EF
:100450007F4F04BF41F40021704730B54FF4607402
:1004600001F0004521F000411CE700BF50EA010205
:1004700008BF704730B54FF000050AE050EA0102AE
:1004800008BF704730B511F0004502D5404261EB1E
:1004900041014FF4806404F132045FEA915C3FF45F
:1004A000D8AE4FF003025FEADC0C18BF03325FEAFC
:1004B000DC0C18BF033202EBDC02C2F1200300FAAD
:1004C00003FC20FA02F001FA03FE40EA0E0021FAD2
:1004D00002F11444BDE600BF70B54FF0FF0C4CF4C0
:1004E000E06C1CEA11541DBF1CEA135594EA0C0F72
:1004F00095EA0C0F00F0DEF82C4481EA030621EAAD
:100500004C5123EA4C5350EA013518BF52EA0335E7
:1005100041F4801143F4801338D0A0FB02CE4FF099
:100520000005E1FB02E506F00042E0FB03E54FF0C9
:100530000006E1FB03569CF0000F18BF4EF0010EC1
:10054000A4F1FF04B6F5007F64F5407404D25FEABD
:100550004E0E6D4146EB060642EAC62141EA555170
:100560004FEAC52040EA5E504FEACE2EB4F1FD0CB2
:1005700088BFBCF5E06F1ED8BEF1004F08BF5FEA30
:10058000500E50F1000041EB045170BD06F00046E2
:1005900046EA010140EA020081EA0301B4EB5C048F
:1005A000C2BFD4EB0C0541EA045170BD41F4801187
:1005B0004FF0000E013C00F3AB8014F1360FDEBFAC
:1005C000002001F0004170BDC4F10004203C35DA88
:1005D0000C341BDC04F11404C4F1200500FA05F30B
:1005E00020FA04F001FA05F240EA020001F00042AC
:1005F00021F0004110EBD37021FA04F642EB060122
:100600005EEA430E08BF20EAD37070BDC4F10C044B
:10061000C4F1200500FA04F320FA05F001FA04F20F
:1006200040EA020001F0004110EBD37041F10001FB
:100630005EEA430E08BF20EAD37070BDC4F1200506
:1006400000FA05F24EEA020E20FA04F301FA05F26E
:1006500043EA020321FA04F001F0004121FA04F216
:1006600020EA020000EBD3705EEA430E08BF20EAE6
:10067000D37070BD94F0000F0FD101F00046400020
:1006800041EB010111F4801F08BF013CF7D041EAA2
:10069000060195F0000F18BF704703F000465200A6
:1006A00043EB030313F4801F08BF013DF7D043EA77
:1006B0000603704794EA0C0F0CEA135518BF95EA2D
:1006C0000C0F0CD050EA410618BF52EA4306D1D1B4
:1006D00081EA030101F000414FF0000070BD50EAD3
:1006E000410606BF1046194652EA430619D094EA5D
:1006F0000C0F02D150EA013613D195EA0C0F05D147
:1007000052EA03361CBF104619460AD181EA03019A
:1007100001F0004141F0FE4141F470014FF0000052
:1007200070BD41F0FE4141F4780170BD70B54FF0ED
:10073000FF0C4CF4E06C1CEA11541DBF1CEA13556D
:1007400094EA0C0F95EA0C0F00F0A7F8A4EB05044F
:1007500081EA030E52EA03354FEA013100F0888046
:100760004FEA03334FF0805545EA131343EA12630F
:100770004FEA022245EA111545EA10654FEA0026C4
:100780000EF000419D4208BF964244F1FD0404F57D
:10079000407402D25B084FEA3202B61A65EB0305D9
:1007A0005B084FEA32024FF480104FF4002CB6EB96
:1007B000020E75EB030E22BFB61A754640EA0C0016
:1007C0005B084FEA3202B6EB020E75EB030E22BF56
:1007D000B61A754640EA5C005B084FEA3202B6EB97
:1007E000020E75EB030E22BFB61A754640EA9C0056
:1007F0005B084FEA3202B6EB020E75EB030E22BF26
:10080000B61A754640EADC0055EA060E18D04FEAE3
:10081000051545EA16754FEA06164FEAC30343EA83
:1008200052734FEAC2025FEA1C1CC0D111F4801F50
:100830000BD141EA00014FF000004FF0004CB6E749
:1008400011F4801F04BF01430020B4F1FD0C88BFE8
:10085000BCF5E06F3FF6AFAEB5EB030C04BFB6EBF3
:10086000020C5FEA500C50F1000041EB045170BDE6
:100870000EF0004E4EEA113114EB5C04C2BFD4EB13
:100880000C0541EA045170BD41F480114FF0000E97
:10089000013C90E645EA060E8DE60CEA135594EA13
:1008A0000C0F08BF95EA0C0F3FF43BAF94EA0C0F16
:1008B0000AD150EA01347FF434AF95EA0C0F7FF48B
:1008C00025AF104619462CE795EA0C0F06D152EADF
:1008D00003353FF4FDAE1046194622E750EA4106C3
:1008E00018BF52EA43067FF4C5AE50EA41047FF4D4
:1008F0000DAF52EA43057FF4EBAE12E74FF0FF3C39
:1009000006E000BF4FF0010C02E000BF4FF0010C09
:100910004DF804CD4FEA410C7FEA6C5C4FEA430C82
:1009200018BF7FEA6C5C1BD001B050EA410C0CBFD1
:1009300052EA430C91EA030F02BF90EA020F002033
:10094000704710F1000F91EA030F58BF994208BF9A
:1009500090422CBFD8176FEAE37040F00100704757
:100960004FEA410C7FEA6C5C02D150EA013C07D1AE
:100970004FEA430C7FEA6C5CD6D152EA033CD3D0F9
:100980005DF8040B704700BF8446104662468C46F3
:100990001946634600E000BF01B5FFF7B7FF002826
:1009A00048BF10F1000F01BD4DF808EDFFF7F4FF4F
:1009B0000CBF012000205DF808FB00BF4DF808EDDA
:1009C000FFF7EAFF34BF012000205DF808FB00BFFD
:1009D0004DF808EDFFF7E0FF94BF012000205DF81F
:1009E00008FB00BF4DF808EDFFF7CEFF94BF0120D4
:1009F00000205DF808FB00BF4DF808EDFFF7C4FFCD
:100A000034BF012000205DF808FB00BF4FEA410C15
:100A10007FEA6C5C02D150EA013C0AD14FEA430CF8
:100A20007FEA6C5C02D152EA033C02D14FF0000035
:100A300070474FF0010070474FEA410212F5001273
:100A400015D211D56FF47873B3EB625212D94FEA15
:100A5000C12343F0004343EA505311F0004F23FAFF
:100A600002F018BF404270474FF00000704750EA54
:100A7000013005D111F0004008BF6FF00040704711
:100A80004FF00000704700BF4A0011D212F500126B
:100A900011D20DD56FF47873B3EB62520ED44FEAD6
:100AA000C12343F0004343EA505323FA02F0704756
:100AB0004FF00000704750EA013002D14FF0FF3094
:100AC00070474FF0000070474FEA4102B2F1E04337
:100AD00024BFB3F5001CDCF1FE5C0DD901F0004C25
:100AE0004FEAC0024CEA5070B2F1004F40EB830075
:100AF00008BF20F00100704711F0804F21D113F1A1
:100B00003872BCBF01F00040704741F480114FEAD9
:100B10005252C2F11802C2F1200C10FA0CF320FA62
:100B200002F018BF40F001004FEAC1234FEAD3237F
:100B300003FA0CFC40EA0C0023FA02F34FEA4303E9
:100B4000CCE77FEA625307D150EA01331EBF4FF072
:100B5000FE4040F44000704701F0004040F0FE408D
:100B600040F40000704700BF80F0004002E000BF8A
:100B700081F0004142001FBF5FEA410392EA030F88
:100B80007FEA226C7FEA236C6AD04FEA1262D2EBD2
:100B90001363C1BFD218414048404140B8BF5B42D7
:100BA000192B88BF704710F0004F40F4000020F070
:100BB0007F4018BF404211F0004F41F4000121F086
:100BC0007F4118BF494292EA030F3FD0A2F10102D0
:100BD00041FA03FC10EB0C00C3F1200301FA03F10E
:100BE00000F0004302D5494260EB4000B0F5000F31
:100BF00013D3B0F1807F06D340084FEA310102F1F0
:100C00000102FE2A51D2B1F1004F40EBC25008BFA1
:100C100020F0010040EA03007047490040EB00006B
:100C2000013A28BFB0F5000FEDD2B0FA80FCACF16C
:100C3000080CB2EB0C0200FA0CF0AABF00EBC25099
:100C400052421843BCBFD0401843704792F0000F87
:100C500081F4000106BF80F400000132013BB5E7DA
:100C60004FEA41037FEA226C18BF7FEA236C21D050
:100C700092EA030F04D092F0000F08BF08467047B5
:100C800090EA010F1CBF0020704712F07F4F04D183
:100C9000400028BF40F00040704712F100723CBF96
:100CA00000F50000704700F0004343F0FE4040F4C0
:100CB000000070477FEA226216BF08467FEA23637E
:100CC0000146420206BF5FEA412390EA010F40F469
:100CD000800070474FF0000304E000BF10F00043B5
:100CE00048BF40425FEA000C08BF704743F096439C
:100CF00001464FF000001CE050EA010208BF7047B7
:100D00004FF000030AE000BF50EA010208BF70473D
:100D100011F0004302D5404261EB41015FEA010C52
:100D200002BF84460146002043F0B64308BFA3F14A
:100D30008053A3F50003BCFA8CF2083AA3EBC2532C
:100D400010DB01FA02FC634400FA02FCC2F120024B
:100D5000BCF1004F20FA02F243EB020008BF20F082
:100D60000100704702F1200201FA02FCC2F12002E8
:100D700050EA4C0021FA02F243EB020008BF20EADD
:100D8000DC70704738B505460C4600220023284623
:100D90002146FFF713FE28B928462146BDE8384012
:100DA00000F00AB8284604F1004100F005F840427E
:100DB00061EB410138BD00BFD0B500220B4B0646A8
:100DC0000F46FFF789FBFFF75FFE0446FFF70AFBBC
:100DD0000022074BFFF780FB02460B4630463946A0
:100DE000FFF7C2F9FFF750FE2146D0BD0000F03DED
:100DF0000000F04180B400AF144BDB68134A23F0CD
:100E00008073D360114BDB68104A43F08073D3606A
:100E10000F4B1B680E4A23F0010313600C4B1B6839
:100E20000B4A43F001031360094B00225A6000BFD4
:100E300000BF00BF064B5B68002B01D0002300E021
:100E400001231846BD4680BC704700BFF0ED00E0AE
:100E5000001000E080B584B000AF78600D4B5B6897
:100E6000FB6003F0A9F903460B4AA2FB03239B0C8A
:100E70007A6802FB03F37B6000BF064B5A68FB688D
:100E8000D21A7B689A42F8D300BF00BF1037BD4624
:100E900080BD00BF001000E083DE1B4380B586B03C
:100EA00000AF78600B467B8007F1080300221A60D0
:100EB0005A609A60DA607B88BB600123FB60022382
:100EC0007B6107F108031946786801F0ADFF00BFA8
:100ED0001837BD4680BD80B586B000AF78600B4640
:100EE0007B8007F1080300221A605A609A60DA607A
:100EF0007B88BB600023FB6000233B6107F1080394
:100F00001946786801F090FF00BF1837BD4680BDD4
:100F100080B500AFFFF76EFF01210D48FFF7BEFF60
:100F2000002201210A4802F01AF944F25060FFF74A
:100F300091FF01220121064802F011F91E20FFF75E
:100F400089FF01210248FFF7C6FF00BF80BD00BF37
:100F50000008014080B582B000AF0023FB71322051
:100F6000FFF778FF0121114802F0E2F80346002B59
:100F70000ED16420FFF76EFF01210C4802F0D8F873
:100F80000346002B02D00123FB7101E0FF23FB711C
:100F900000BF0121054802F0CBF80346002BF8D131
:100FA000FB7918460837BD4680BD00BF00080140E8
:100FB00080B582B000AF0023BB7137E000BF0121D4
:100FC0001E4802F0B5F80346002BF8D03220FFF798
:100FD00041FF0121194802F0ABF80346002B0ED166
:100FE000BB79C3F10703012202FA03F35BB2DB43CF
:100FF0005AB297F9073013405BB2FB710BE0BB7933
:10100000C3F10703012202FA03F35AB297F907303A
:1010100013435BB2FB7100BF0121084802F088F85E
:101020000346002BF8D1BB790133BB71BB79072B89
:10103000C4D9FB7918460837BD4680BD0008014079
:1010400080B582B000AF7860FFF762FFFFF782FFE4
:1010500003461A46224B1A70FFF7AAFF03461A46A8
:10106000204B1A70FFF7A4FF03461A461E4B1A7056
:10107000FFF79EFF03461A461C4B1A70FFF798FFB6
:1010800003461A461A4B1A70FFF792FF03469AB2AC
:10109000184B1A80174B1B881946124B1B781A469F
:1010A000114B1B781344114A12781344104A1278DA
:1010B000134499420FD10D4B1B781846FFF70AFED7
:1010C00002467B681A60074B1B781846FFF702FE42
:1010D00002467B685A6000BF0837BD4680BD00BF2E
:1010E00002020020FC010020FD010020FE01002082
:1010F000FF01002000020020B0B48FB000AF786084
:1011000040F2B113FB62072387F83030072387F8DA
:101110003130012387F83230FF2387F836306423DB
:1011200087F837300823BB867B681D4607F10C041F
:101130000FCC0FC50FCC0FC594E8070085E807005A
:1011400078683C37BD46B0BC704780B582B000AF10
:1011500078607B6898687B689B890022194601F05B
:10116000FEFF012001F07EFC7B6898687B689B890C
:101170000122194601F0F3FF642001F073FC00BF67
:101180000837BD4680BD80B584B000AF7860396057
:101190000121786800F09FF90346BB73BB7BFB73AA
:1011A0003B68002B07D1BB7B23F00703FB737B68F5
:1011B0000022DA613EE03B68012B0CD197F90E303A
:1011C00023F007035BB243F001035BB2FB737B6860
:1011D0000122DA612EE03B68032B0CD197F90E3027
:1011E00023F007035BB243F003035BB2FB737B683E
:1011F0000322DA611EE03B68052B0CD197F90E3013
:1012000023F007035BB243F005035BB2FB737B681B
:101210000522DA610EE03B68062B0BD197F90E3000
:1012200023F007035BB243F006035BB2FB737B68FA
:101230000622DA61FB7B1A460121786800F065F925
:1012400000BF1037BD4680BD80B584B000AFF860E8
:10125000B9603B601346FB80FB681868FB689B889D
:101260000022194601F07BFFFB689869FA884FF469
:10127000FA63B96803F074F800BFFB689B6918460D
:1012800003F05DFC0346012BF7D1FB6898693A8BAC
:101290004FF4FA63396803F09FF900BFFB689B695C
:1012A000184603F04CFC0346012BF7D1FB68186885
:1012B000FB689B880122194601F051FF00BF1037DF
:1012C000BD4680BD80B584B000AFF860B9603B60BA
:1012D0001346FB80FB681868FB689B880022194650
:1012E00001F03DFFFB689869FA884FF4FA63B9682A
:1012F00003F036F800BFFB689B69184603F01FFC3B
:101300000346012BF7D1FB6898693A8B4FF4FA63D7
:10131000396803F025F800BFFB689B69184603F0A5
:101320000EFC0346012BF7D1FB681868FB689B880D
:101330000122194601F013FF00BF1037BD4680BDE2
:1013400080B584B000AF786039603B68DB045B1126
:10135000FB60FB681B0CFB72FB7A1A46062178685F
:1013600000F0D3F8052001F07DFBFB681B0AFB723F
:10137000FB7A1A460721786800F0C7F8052001F0CB
:1013800071FBFB68FB72FB7A1A460821786800F053
:10139000BCF8052001F066FB00BF1037BD4680BDDC
:1013A00080B584B000AF786039603B680C2B01DDFC
:1013B0000C233B603B68062B01DC07233B601E21AE
:1013C000786800F088F80346FB730A2001F04AFBB6
:1013D0003B68DBB21B01DAB2FB7B03F00F03DBB22D
:1013E0001344BB73BB7B1A461E21786800F08DF84E
:1013F0000A2001F037FB00BF1037BD4680BD80B525
:1014000082B000AF78600B46FB70FB781A4609216A
:10141000786800F07AF80A2001F024FB00BF083752
:10142000BD4680BD80B584B000AF78600B46FB70D0
:101430000023FB73FB782C2B01D82D23FB70FB784A
:10144000F02B01D9F023FB70FB78782B09D8FB78BF
:101450002D3B124A82FB03125210DB17D31AFB7387
:101460000BE0FB78F02B08D8FB781E330B4A82FB8D
:1014700003129210DB17D31AFB73FB7B2033FB7331
:10148000FB7B1A460B21786800F03FF80A2001F038
:10149000E9FA00BF1037BD4680BD00BF67666666CB
:1014A00080B584B000AF78601E21786800F013F832
:1014B0000346FB73FB7B43F00703BB73BB7B1A46FE
:1014C0001E21786800F021F80A2001F0CBFA00BF55
:1014D0001037BD4680BD80B586B002AF78600B4640
:1014E000FB70FB7803F07F03DBB2BB7307F10F03E4
:1014F00007F10E010122009201227868FFF7A4FE95
:10150000FB7B18461037BD4680BD80B586B002AF64
:1015100078600B46FB701346BB70FB7863F07F036B
:10152000DBB2BB73BB78FB7307F10F0307F10E014E
:101530000122009201227868FFF7C4FE00BF103735
:10154000BD4680BD80B586B000AFF8607A601A46AF
:101550000B46FB721346BB72FB7A63F07F03DBB270
:10156000FB75FB681868FB689B880022194601F030
:10157000F6FDFB68986907F117014FF4FA63012241
:1015800002F0EEFE00BFFB689B69184603F0D7FA35
:101590000346012BF7D1FB689869BB7A9AB24FF4E6
:1015A000FA63796802F0DCFE00BFFB689B691846AD
:1015B00003F0C5FA0346012BF7D1FB681868FB68F6
:1015C0009B880122194601F0CAFD00BF1837BD46AD
:1015D00080BD80B483B000AF7860012318460C371B
:1015E000BD4680BC704780B586B000AFF860B9607A
:1015F00011461A460B46FB711346BB80FB68DB693C
:101600007B610121F868FFF7BEFD0E21F868FFF746
:1016100062FF0346FB74FB7C1A460D21F868FFF756
:1016200074FFFB791A462221F868FFF76EFFFB79F9
:10163000BA680021F868FFF785FF0321F868FFF713
:10164000A2FD1221F868FFF746FF0346FB74FB7CFE
:1016500003F00803002B0AD0FF221221F868FFF7DD
:1016600054FF7969F868FFF78EFD01230FE0BB880E
:10167000013BBB80BB88002B05D17969F868FFF777
:1016800082FD002303E0012001F0ECF9D9E71846C0
:101690001837BD4680BD80B584B000AF78607868EB
:1016A000FFF797FF0346002B00F093800021786836
:1016B000FFF769FD0A2001F0D5F901217868FFF7ED
:1016C0000AFF0346FB730A2001F0CCF9FB7B63F0B1
:1016D0007F03BB73BB7B1A4601217868FFF715FFB8
:1016E000642001F0BFF97B681B6A19467868FFF730
:1016F00027FE7B6893F82A3019467868FFF77FFE4B
:101700007B6893F82B3019467868FFF78BFE23220D
:101710000C217868FFF7F9FE7868FFF7C1FE7B6857
:1017200093F8243019467868FFF73AFEFF221F210C
:101730007868FFF7EAFE0023BB737B6893F82530D7
:101740001B01DAB27B6893F826305B00DBB21344EE
:10175000BB73BB7B1A461D217868FFF7D6FE7B68FA
:101760001B8D1B0A9BB2DBB21A4620217868FFF75B
:10177000CCFE7B681B8DDBB21A4621217868FFF70F
:10178000C4FE40217868FFF7A6FE0346FB73FB7B8F
:1017900043F03F03BB73BB7B1A4640217868FFF7D9
:1017A000B4FE01217868FFF7EEFC7B680122DA6164
:1017B0000A2001F057F942217868FFF78CFE0346B2
:1017C000FB73FB7B122B01D1C82304E04FF4CA73D7
:1017D00001E040F2F71318461037BD4680BD000007
:1017E00080B586B002AF0346FB71FB7923F00F038F
:1017F000FB73FB791B01BB73FB7B43F00C03DBB278
:101800003B72FB7B43F00803DBB27B72BB7B43F094
:101810000C03DBB2BB72BB7B43F00803DBB2FB7291
:1018200007F108026423009304234E21034801F0CA
:10183000F3FD00BF1037BD4680BD00BF7C02002015
:1018400080B586B002AF0346FB71FB7923F00F032E
:10185000FB73FB791B01BB73FB7B43F00D03DBB216
:101860003B72FB7B43F00903DBB27B72BB7B43F033
:101870000D03DBB2BB72BB7B43F00903DBB2FB722F
:1018800007F108026423009304234E21034801F06A
:10189000C3FD00BF1037BD4680BD00BF7C020020E5
:1018A00080B500AF3320FFF79BFF3220FFF798FF92
:1018B000322001F0D7F82820FFF792FF322001F004
:1018C000D1F80120FFF78CFF322001F0CBF8062081
:1018D000FFF786FF322001F0C5F80C20FFF780FFEC
:1018E000322001F0BFF80220FFF77AFF322001F02A
:1018F000B9F88020FFF774FF00BF80BD80B582B0CB
:1019000000AF786006E07B685A1C7A601B78184646
:10191000FFF796FF7B681B78002BF4D100BF00BF58
:101920000837BD4680BD80B500AF0120FFF758FFE6
:1019300000BF80BD80B584B000AF786039607B683F
:10194000012B08D17B68DAB23B68DBB21344DBB20F
:101950007F33FB7308E03B68DBB24033DBB25BB242
:1019600063F07F035BB2FB73FB7B1846FFF738FF26
:1019700000BF1037BD4680BD2DE9B04F96B00EAF09
:101980004348FFF75DFB424B1B68424A1360404BE4
:101990005B68414A1360414800F0C0FC3F4B9B6AC2
:1019A0003F4A13603D4BDB6A3E4A13603B4B1B6B67
:1019B0003D4A1360394B5B6B3C4A1360374B9B6B62
:1019C0003B4A1360354BDB6B3A4A1360314B1B6863
:1019D0001846FEF729FDC7E906012F4B1B6818467C
:1019E000FEF722FD82468B462D4B1B681846FEF7FC
:1019F0001BFDC7E904012B4B1B681846FEF714FDBD
:101A0000C7E90201284B1B681846FEF70DFDC7E920
:101A10000001264B1B681846FEF706FD80468946E6
:101A2000234B1B681846FEF7FFFC04460D46214B6E
:101A30001B681846FEF7F8FC02460B46CDE90C235E
:101A4000CDE90A45CDE90889D7E90034CDE9063466
:101A5000D7E90234CDE90434D7E90434CDE90234BE
:101A6000CDE900ABD7E906231349144804F048FD3B
:101A70001248FEF76DFB0346DAB240F6B8330F4961
:101A80000F48FFF7B0FD00BF2037BD46BDE8B08F5F
:101A900004020020B0030020B40300200C02002048
:101AA000B8030020BC030020C0030020C4030020B2
:101AB000C8030020CC03002098A00008D003002019
:101AC0005002002080B500AF364800F027FC354BAF
:101AD0009B6A354A1360334BDB6A344A1360314BDF
:101AE0001B6B334A13602F4B5B6B324A13602D4BD9
:101AF0009B6B314A13602B4BDB6B304A1360FFF753
:101B000012FF322000F0AEFF274B1B681846FEF78D
:101B10008BFC02460B462A492A4804F0F1FC0021BE
:101B20000120FFF707FF2748FFF7E8FE1F4B1B6860
:101B30001846FEF779FC02460B462349214804F07B
:101B4000DFFC07210120FFF7F5FE1E48FFF7D6FE58
:101B5000174B1B681846FEF767FC02460B461B49ED
:101B6000184804F0CDFC00210220FFF7E3FE1548E1
:101B7000FFF7C4FE0F4B1B681846FEF755FC0246E4
:101B80000B4613490F4804F0BBFC07210220FFF766
:101B9000D1FE0C48FFF7B2FE4FF4FA6000F062FF8E
:101BA00000BF80BD0C020020B8030020BC03002051
:101BB000C0030020C4030020C8030020CC03002081
:101BC000C8A0000834040020D0A00008D8A0000855
:101BD000E0A0000880B500AFFFF7A5FE322000F0BE
:101BE00041FF3248FFF72CFA304B1B68304A136034
:101BF0002E4B5B682F4A13602F4800F08FFB2E4B53
:101C00009B6B2E4A13602C4BDB6B2D4A13602B4BC6
:101C10001B681846FEF708FC02460B4629492A486D
:101C200004F06EFC00210120FFF784FE2648FFF738
:101C300065FE234B1B681846FEF7F6FB02460B4673
:101C40002249214804F05CFC08210120FFF772FEC4
:101C50001D48FFF753FE164B1B681846FEF7E4FBC2
:101C600002460B461A49184804F04AFC002102209B
:101C7000FFF760FE1448FFF741FE0E4B1B68184645
:101C8000FEF7D2FB02460B4612490F4804F038FC1F
:101C900008210220FFF74EFE0B48FFF72FFE4FF4FE
:101CA000FA6000F0DFFE00BF80BD00BF040200202C
:101CB000B0030020B40300200C020020C803002061
:101CC000CC030020E8A0000834040020F0A00008A5
:101CD000F8A0000800A10008B0B58CB000AF00F07B
:101CE0005FFE00F09DF800F099F900F043F900F074
:101CF0006BF900F009F900F0D9F801224049414898
:101D000000F02DFA3F4B1B6801223F49184603F0B3
:101D1000FAF83E4C3B461846FFF7EEF925463C469E
:101D20000FCC0FC50FCC0FC594E8070085E807005E
:101D3000364B374A1A60354B01229A80334B344A6E
:101D40009A60324B02229A81304B314A1A612F4BF2
:101D50004FF480629A822D4B2E4A9A612B4B40F2AF
:101D6000B1121A62294B072283F82420274B07223D
:101D700083F82520254B012283F82620234BFF22C0
:101D800083F82A20214B822283F82B201F4B0A2222
:101D90001A851E48FFF7D9F91C48FFF77CFC03465B
:101DA000C82B02D11C4B01221A70FFF779FD0121CB
:101DB0000120FFF7BFFD1948FFF7A0FD4FF47A702F
:101DC00000F050FE0F4800F0A9FA0346002BF9D0AE
:101DD000FFF700FF4FF47A7000F044FEFFF772FE49
:101DE0004FF47A7000F03EFE0B4B1B78012BE9D1CB
:101DF000FFF7C2FD4EF6602000F034FEE2E700BFC0
:101E0000280300200C0200202F0200205002002096
:101E1000000C0140D00200209804002008A1000816
:101E200080B590B000AF07F11803282200211846B2
:101E300003F0ECFC3B1D00221A605A609A60DA60E5
:101E40001A610123BB614FF48033FB6100233B62C5
:101E50000123BB6202237B634FF48033BB634FF4E7
:101E6000E013FB6307F11803184601F0DBFD03469E
:101E7000002B01D000F06EF90F237B600223BB60C2
:101E80000023FB604FF480633B6100237B613B1DBB
:101E90000221184602F048F80346002B01D000F05A
:101EA00059F900BF4037BD4680BD000080B500AF86
:101EB000124B134A1A60114B124A5A600F4B002200
:101EC0009A600E4B0022DA600C4B4FF480421A618C
:101ED0000A4B00225A61094B00229A61074B0022EB
:101EE000DA61064B00221A62044801F051F90346F8
:101EF000002B01D000F02EF900BF80BD7C02002035
:101F000000540040A086010080B500AF174B184A6E
:101F10001A60164B4FF482725A60144B00229A607A
:101F2000124B0022DA60114B00221A610F4B002283
:101F30005A610E4B4FF400729A610C4B1022DA6119
:101F40000A4B00221A62094B00225A62074B0022F8
:101F50009A62064B0A22DA62044802F07DF90346CF
:101F6000002B01D000F0F6F800BF80BDD0020020A9
:101F70000030014080B500AF114B124A1A60104B7F
:101F80004FF416525A600E4B00229A600C4B0022FE
:101F9000DA600B4B00221A61094B0C225A61084B84
:101FA00000229A61064B0022DA61054802F0CCFE5D
:101FB0000346002B01D000F0CDF800BF80BD00BF6C
:101FC000280300200038014080B500AF114B124AB1
:101FD0001A60104B4FF416525A600E4B00229A6052
:101FE0000C4B0022DA600B4B00221A61094B0C22C9
:101FF0005A61084B00229A61064B0022DA610548BB
:1020000002F0A2FE0346002B01D000F0A3F800BFAF
:1020100080BD00BF6C0300200044004080B588B044
:1020200000AF07F1100300221A605A609A60DA606C
:102030002A4B9B69294A43F020039361274B9B69F4
:1020400003F02003FB60FB68244B9B69234A43F0A9
:1020500004039361214B9B6903F00403BB60BB68DD
:102060001E4B9B691D4A43F0080393611B4B9B6900
:1020700003F008037B607B68012240F203111848DB
:1020800001F06DF801233B6100237B610023BB61FC
:1020900007F110031946134800F0C6FE40F203137F
:1020A0003B6101237B610023BB610223FB6107F1DC
:1020B000100319460A4800F0B7FE4FF480633B61F5
:1020C000094B7B610023BB6107F1100319460448EB
:1020D00000F0AAFE00BF2037BD4680BD00100240C0
:1020E000000C0140000801400000111080B582B0D2
:1020F00000AF7860144B1B79DBB21E2B02D9124B58
:1021000000221A717B681B68104A934217D10E4B4C
:102110001B6801220E49184602F0F5FE0A4B1B7996
:10212000DBB21946084B93F82320074B0B445A7136
:10213000054B1B79DBB20133DAB2034B1A7100BFD6
:102140000837BD4680BD00BF0C02002000380140AA
:102150002F02002080B400AF72B600BFFEE780B44B
:1021600085B000AFF860B9601346FB71FB79002BB6
:1021700002D0FB79F82B01D90123FB71FB68FA79B6
:1021800083F82520FB68BA681A6000BF1437BD4683
:1021900080BC704780B586B000AFF8600846114635
:1021A0001A460346FB720B463B811346FB803B8C71
:1021B0004FF6FF72934205D03B8C002B02D03B8C34
:1021C000F72B03D9FB6893F825303B843B8CDBB2BB
:1021D0003B74FB7A7B743B891B0A9BB2DBB2BB74FA
:1021E0003B89DBB2FB74FB881B0A9BB2DBB23B75FD
:1021F000FB88DBB27B7507F110030821184600F05D
:102200003CF8FB68186807F110016423082202F00B
:10221000E8FD642000F026FC00BF1837BD4680BDF5
:1022200080B584B000AF78600B46FB70FB78023B52
:102230007A6813445B791AB2FB78013B79680B44E6
:102240005B791B021BB213431BB2FB817B685A1DD7
:10225000FB789BB2023B9BB21946104600F034F863
:102260000346BB81FA89BB899A4201D1012300E070
:10227000002318461037BD4680BD80B584B000AF3E
:1022800078600B467B807B88022B19D97B88023BC8
:102290009BB21946786800F017F80346FB81FB896A
:1022A0001B0A99B27B88013B7A681344CAB21A7040
:1022B0007B88023B7A681344FA89D2B21A7000E034
:1022C00000BF1037BD4680BD80B485B000AF7860D8
:1022D0000B467B804FF6FF73FB8112E07B685A1C34
:1022E0007A601B78DAB2FB89DBB253407B73FB89DF
:1022F0001B0AFB817B7B084A32F81320FB89534081
:10230000FB817B885A1E7A80002BE7D1FB89184617
:102310001437BD4680BC704728A1000880B584B042
:1023200002AF78607B6893F825309BB200930A2354
:10233000002204217868FFF72DFF19217868FFF744
:102340006FFF0346002B00F0BB807B681B7A1B02EB
:102350007A68527A13431846FEF744F84FF00002A9
:102360005A4BFEF7E3F902460B4610461946FEF7B4
:10237000ABFB02467B689A627B689B7A1B027A6899
:10238000D27A1A437B681B7B1B061A437B685B7BF4
:102390001B0413431846FEF725F84FF000024C4B80
:1023A000FEF7C4F902460B4610461946FEF78CFBB1
:1023B00002467B68DA627B689B7B1B027A68D27B71
:1023C0001A437B681B7C1B061A437B685B7C1B04DF
:1023D00013431846FEF706F84FF000023B4BFEF79A
:1023E000A5F902460B4610461946FEF76DFB02465C
:1023F0007B681A637B689B7C1B027A68D27C1A43D9
:102400007B681B7D1B061A437B685B7D1B041343A3
:102410001846FDF7E7FF4FF000022D4BFEF786F957
:1024200002460B4610461946FEF74EFB02467B68F5
:102430005A637B689B7D1B027A68D27D13431846E2
:10244000FDF7D0FF4FF00002204BFEF76FF9024678
:102450000B4610461946FEF737FB02467B689A6327
:102460007B681B7E1B027A68527E13431846FDF779
:10247000B9FF4FF00002174BFEF758F902460B4622
:1024800010461946FEF720FB02467B68DA637B683C
:102490009B7E9BB21B029AB27B68DB7E9BB213438E
:1024A0009AB27B68A3F840207B6805331E22002186
:1024B000184603F0ABF97B6800221A71012300E093
:1024C000002318460837BD4680BD00BF00002440E9
:1024D00000408F400000594080B485B000AF154BDC
:1024E0009B69144A43F001039361124B9B6903F00B
:1024F0000103BB60BB680F4BDB690E4A43F080539E
:10250000D3610C4BDB6903F080537B607B680A4B23
:102510005B68FB60FB6823F0E063FB60FB6843F0F3
:102520000073FB60044AFB68536000BF1437BD466C
:1025300080BC7047001002400000014080B588B0A8
:1025400000AF786007F1100300221A605A609A60A9
:10255000DA607B681B68154A934223D1144B9B6950
:10256000134A43F008039361114B9B6903F008037E
:10257000FB60FB68C0233B6112237B610323FB618B
:1025800007F1100319460B4800F04EFC084BDB69BD
:10259000074A43F40013D361054BDB6903F40013CE
:1025A000BB60BB6800BF2037BD4680BD0054004003
:1025B00000100240000C014080B588B000AF786088
:1025C00007F1100300221A605A609A60DA607B6893
:1025D0001B681B4A93422FD11A4B9B69194A43F43B
:1025E00080539361174B9B6903F48053FB60FB6836
:1025F000144B9B69134A43F004039361114B9B698D
:1026000003F00403BB60BB68A0233B6102237B6132
:102610000323FB6107F1100319460B4800F004FC8B
:1026200040233B6100237B610023BB6107F1100362
:102630001946054800F0F8FB00BF2037BD4680BDB5
:1026400000300140001002400008014080B58AB00F
:1026500000AF786007F1180300221A605A609A6090
:10266000DA607B681B683B4A93423AD13A4B9B69DC
:10267000394A43F480439361374B9B6903F48043A9
:102680007B617B69344B9B69334A43F0040393615C
:10269000314B9B6903F004033B613B694FF40073CA
:1026A000BB610223FB6103237B6207F11803194618
:1026B0002A4800F0B9FB4FF48063BB610023FB6143
:1026C00000233B6207F118031946244800F0ACFBD5
:1026D00000220021252000F0C0FA252000F0D9FAC0
:1026E00034E07B681B681E4A93422FD11A4BDB698A
:1026F000194A43F40033D361174BDB6903F4003309
:10270000FB60FB68144B9B69134A43F0040393611D
:10271000114B9B6903F00403BB60BB680423BB61DE
:102720000223FB6103237B6207F1180319460B4860
:1027300000F07AFB0823BB610023FB6100233B62AE
:1027400007F118031946054800F06EFB00BF283753
:10275000BD4680BD00380140001002400008014025
:102760000044004080B400AFFEE780B400AFFEE755
:1027700080B400AFFEE780B400AFFEE780B400AFE6
:10278000FEE780B400AF00BFBD4680BC704780B498
:1027900000AF00BFBD4680BC704780B400AF00BF33
:1027A000BD4680BC704780B500AF00F03FF900BF68
:1027B00080BD000080B500AF024802F0D5FB00BF2D
:1027C00080BD00BF2803002080B400AF012318465D
:1027D000BD4680BC704780B582B000AF786039607C
:1027E00002F0EAFF034616221A604FF0FF33184644
:1027F0000837BD4680BD80B582B000AF78604FF02D
:10280000FF317868FFF7E7FFFEE780B586B000AFDD
:10281000F860B9607A6000237B610AE0AFF3008062
:102820000146BB685A1CBA60CAB21A707B69013390
:102830007B617A697B689A42F0DB7B6818461837BF
:10284000BD4680BD80B586B000AFF860B9607A60E3
:1028500000237B6109E0BB685A1CBA601B781846EC
:10286000AFF300807B6901337B617A697B689A42B0
:10287000F1DB7B6818461837BD4680BD80B483B055
:1028800000AF78604FF0FF3318460C37BD4680BC70
:10289000704780B483B000AF786039603B684FF414
:1028A00000525A60002318460C37BD4680BC704762
:1028B00080B483B000AF7860012318460C37BD4662
:1028C00080BC704780B485B000AFF860B9607A60B2
:1028D000002318461437BD4680BC704780B586B0CB
:1028E00000AF7860144A154BD31A7B617B693B615A
:1028F000134B1B68002B02D1114B124A1A60104B6C
:102900001A687B6813443A699A4207D202F054FF6E
:1029100003460C221A604FF0FF3309E0084B1B6896
:10292000FB60074B1A687B681344054A1360FB6819
:1029300018461837BD4680BD005000200004000036
:102940009C040020B804002080B400AF00BFBD4646
:1029500080BC70470C480D490D4A002302E0D45852
:10296000C4500433C4188C42F9D30A4A0A4C0023D9
:1029700001E013600432A242FBD3FFF7E5FF02F04F
:1029800021FFFFF7A9F9704700000020E0010020B7
:10299000ECA70008E0010020B4040020FEE70000DE
:1029A00080B500AF084B1B68074A43F01003136063
:1029B000032000F047F90F2000F008F8FFF78CFD26
:1029C0000023184680BD00BF0020024080B582B0C1
:1029D00000AF7860124B1A68124B1B7819464FF4FF
:1029E0007A73B3FBF1F3B2FBF3F3184600F05FF92F
:1029F0000346002B01D001230EE07B680F2B0AD881
:102A0000002279684FF0FF3000F027F9064A7B6812
:102A10001360002300E0012318460837BD4680BD3F
:102A200000000020080000200400002080B400AF57
:102A3000054B1B781A46054B1B681344034A136069
:102A400000BFBD4680BC704708000020A0040020E5
:102A500080B400AF024B1B681846BD4680BC70476F
:102A6000A004002080B584B000AF7860FFF7F0FFCD
:102A7000B8607B68FB60FB68B3F1FF3F05D00A4B91
:102A80001B781A46FB681344FB6000BFFFF7E0FFAA
:102A90000246BB68D31AFA689A42F7D800BF00BF53
:102AA0001037BD4680BD00BF0800002080B485B04F
:102AB00000AF78607B6803F00703FB600C4BDB68BA
:102AC000BB60BA684FF6FF031340BB60FB681A0295
:102AD000BB68134343F0BF6343F40033BB60044A55
:102AE000BB68D36000BF1437BD4680BC704700BFD1
:102AF00000ED00E080B400AF044BDB681B0A03F07C
:102B000007031846BD4680BC704700BF00ED00E0DB
:102B100080B483B000AF0346FB7197F90730002BF8
:102B20000BDBFB7903F01F02064997F907305B09BD
:102B3000012000FA02F241F8232000BF0C37BD4605
:102B400080BC704700E100E080B483B000AF034672
:102B50003960FB7197F90730002B0ADB3B68DAB26A
:102B60000C4997F907301201D2B20B4483F80023C5
:102B70000AE03B68DAB20849FB7903F00F03043B33
:102B80001201D2B20B441A7600BF0C37BD4680BC8E
:102B9000704700BF00E100E000ED00E080B489B0C4
:102BA00000AFF860B9607A60FB6803F00703FB616F
:102BB000FB69C3F10703042B28BF0423BB61FB6936
:102BC0000433062B02D9FB69033B00E000237B6141
:102BD0004FF0FF32BB6902FA03F3DA43BB681A40D5
:102BE0007B699A404FF0FF317B6901FA03F3D943C7
:102BF0007B680B40134318462437BD4680BC7047A2
:102C000080B582B000AF78607B68013BB3F1807F14
:102C100001D301230FE00A4A7B68013B53600F2177
:102C20004FF0FF30FFF790FF054B00229A60044BF6
:102C300007221A60002318460837BD4680BD00BF32
:102C400010E000E080B582B000AF78607868FFF7F0
:102C50002DFF00BF0837BD4680BD80B586B000AFF0
:102C60000346B9607A60FB7300237B61FFF742FF84
:102C700078617A68B9687869FFF790FF024697F93A
:102C80000F3011461846FFF75FFF00BF1837BD46EB
:102C900080BD80B582B000AF0346FB7197F9073065
:102CA0001846FFF735FF00BF0837BD4680BD80B529
:102CB00082B000AF78607868FFF7A2FF034618463D
:102CC0000837BD4680BD80B485B000AF7860002372
:102CD000FB737B6893F82130022B08D07B680422B9
:102CE0009A637B68002283F82020012320E07B6820
:102CF0001B681A687B681B6822F00E021A607B68EA
:102D00001B681A687B681B6822F001021A607B68E6
:102D10001A6C7B68DB6B012101FA02F25A607B6856
:102D2000012283F821207B68002283F82020FB7B8E
:102D300018461437BD4680BC7047000080B584B08B
:102D400000AF78600023FB737B6893F82130022B7F
:102D500005D07B6804229A630123FB7351E07B68F2
:102D60001B681A687B681B6822F00E021A607B6879
:102D70001B681A687B681B6822F001021A607B6876
:102D80001B68224A934229D07B681B68204A9342E1
:102D900022D07B681B681F4A93421AD07B681B684D
:102DA0001D4A934212D07B681B681C4A93420AD08A
:102DB0007B681B681A4A934202D14FF480130EE0DD
:102DC0004FF080730BE04FF4803308E04FF48053F2
:102DD00005E04FF4807302E0102300E00123114A64
:102DE00053607B68012283F821207B68002283F8EE
:102DF00020207B685B6B002B03D07B685B6B786863
:102E00009847FB7B18461037BD4680BD080002403E
:102E10001C000240300002404400024058000240C2
:102E20006C0002400000024080B48BB000AF7860BC
:102E3000396000237B6200233B6269E101227B6AE7
:102E400002FA03F3FB613B681B68FA691340BB613C
:102E5000BA69FB699A4240F058813B685B689A4ABC
:102E600093425ED0984A934275D8984A934258D07C
:102E7000964A93426FD8964A934252D0944A9342CC
:102E800069D8944A93424CD0924A934263D8924A6A
:102E9000934246D0904A93425DD8122B2AD8122BE7
:102EA00059D801A252F823F0232F0008FD2E000864
:102EB0000F2F0008512F0008572F0008572F000828
:102EC000572F0008572F0008572F0008572F0008CA
:102ED000572F0008572F0008572F0008572F0008BA
:102EE000572F0008572F0008572F0008052F0008FC
:102EF000192F0008794A934213D02CE03B68DB6815
:102F00003B6229E03B68DB6804333B6224E03B68BA
:102F1000DB6808333B621FE03B68DB680C333B62D5
:102F20001AE03B689B68002B02D104233B6213E04C
:102F30003B689B68012B05D108233B627B68FA69DB
:102F40001A6109E008233B627B68FA695A6103E071
:102F500000233B6200E000BFBB69FF2B01D87B6808
:102F600001E07B6804337B61BB69FF2B02D87B6A7D
:102F70009B0002E07B6A083B9B003B617B691A680F
:102F80000F213B6901FA03F3DB431A40396A3B69BD
:102F900001FA03F31A437B691A603B685B6803F02C
:102FA0008053002B00F0B1804D4B9B694C4A43F09D
:102FB000010393614A4B9B6903F00103BB60BB684B
:102FC000484A7B6A9B08023352F82330FB607B6AD5
:102FD00003F003039B000F2202FA03F3DB43FA68BA
:102FE0001340FB607B68404A934213D07B683F4AA2
:102FF00093420DD07B683E4A934207D07B683D4A9E
:10300000934201D1032306E0042304E0022302E0FB
:10301000012300E000237A6A02F003029200934049
:10302000FA681343FB602F497B6A9B080233FA68F6
:1030300041F823203B685B6803F48033002B06D003
:103040002D4B1A682C49BB6913430B6006E02A4BD1
:103050001A68BB69DB43284913400B603B685B6817
:1030600003F40033002B06D0234B5A682249BB6976
:1030700013434B6006E0204B5A68BB69DB431E4993
:1030800013404B603B685B6803F48013002B06D051
:10309000194B9A681849BB6913438B6006E0164BBD
:1030A0009A68BB69DB43144913408B603B685B68DB
:1030B00003F40013002B21D00F4BDA680E49BB69D3
:1030C0001343CB6021E000BF00003210000031103C
:1030D000000022100000211000001210000011104A
:1030E000001002400000014000080140000C0140B7
:1030F0000010014000140140000401400B4BDA684D
:10310000BB69DB4309491340CB607B6A01337B62B7
:103110003B681A687B6A22FA03F3002B7FF48EAEB9
:1031200000BF00BF2C37BD4680BC70470004014083
:1031300080B485B000AF78600B467B807B689A686E
:103140007B881340002B02D00123FB7301E0002396
:10315000FB73FB7B18461437BD4680BC704780B4B8
:1031600083B000AF78600B467B8013467B707B7822
:10317000002B03D07A887B681A6103E07B881A04ED
:103180007B681A6100BF0C37BD4680BC70470000E9
:1031900080B584B000AF78607B68002B01D101233B
:1031A0002BE17B6893F83D30DBB2002B06D17B68C6
:1031B000002283F83C207868FFF7C0F97B6824225E
:1031C00083F83D207B681B681A687B681B6822F0C7
:1031D00001021A607B681B681A687B681B6842F4EE
:1031E00000421A607B681B681A687B681B6822F4BF
:1031F00000421A6000F0EAFFF8607B685B68814A71
:10320000934207D8FB68804A934294BF012300236E
:10321000DBB206E0FB687D4A934294BF01230023A2
:10322000DBB2002B01D00123E7E0FB68784AA2FB68
:1032300003239B0CBB607B681B685B6823F03F012A
:103240007B681B68BA680A435A607B681B681B6A04
:1032500023F03F017B685B686A4A934202D8BB68EF
:10326000013309E0BB684FF4967202FB03F3694A2D
:10327000A2FB03239B0901337A6812680B43136294
:103280007B681B68DB6923F44F4222F0FF027B68F6
:103290005B685C498B4219D8FB68591E7B685B6888
:1032A0005B00B1FBF3F3591C40F6FC730B40002BA1
:1032B0000AD0FB68591E7B685B685B00B1FBF3F3C7
:1032C0000133C3F30B0351E004234FE07B689B6899
:1032D000002B11D1FB68581E7B6859680B465B00B8
:1032E0000B44B0FBF3F30133C3F30B03002B0CBF10
:1032F00001230023DBB212E0FB68581E7B6859688B
:103300000B469B000B4499000B44B0FBF3F30133D5
:10331000C3F30B03002B0CBF01230023DBB2002BF4
:1033200001D0012322E07B689B68002B0ED1FB6853
:10333000581E7B6859680B465B000B44B0FBF3F3E7
:103340000133C3F30B0343F400430FE0FB68581E43
:103350007B6859680B469B000B4499000B44B0FBFB
:10336000F3F30133C3F30B0343F440437968096873
:103370001343CB617B681B681B6823F0C0017B682B
:10338000DA697B681B6A1A437B681B680A431A6008
:103390007B681B689B6823F4034323F0FF037A6870
:1033A00011697A68D26811437A6812680B43936096
:1033B0007B681B68DB6823F0FF017B685A697B68C8
:1033C0009B691A437B681B680A43DA607B681B6849
:1033D0001A687B681B6842F001021A607B68002251
:1033E0001A647B68202283F83D207B6800221A63E0
:1033F0007B68002283F83E20002318461037BD4624
:1034000080BD00BFA08601007F841E00FF083D0034
:1034100083DE1B43D34D621080B588B002AFF860E5
:103420007A601A460B467B8113463B81FFF710FBFF
:103430007861FB6893F83D30DBB2202B40F0E080F0
:103440007B690093192301227049F86800F064F940
:103450000346002B01D00223D3E0FB6893F83C30F5
:10346000012B01D10223CCE0FB68012283F83C2030
:10347000FB681B681B6803F00103012B07D0FB6886
:103480001B681A68FB681B6842F001021A60FB683F
:103490001B681A68FB681B6822F400621A60FB68EC
:1034A000212283F83D20FB68102283F83E20FB6830
:1034B00000221A64FB687A685A62FB683A895A8566
:1034C000FB685B8D9AB2FB681A85FB68504ADA622A
:1034D00079897B693A6AF86800F09CF80346002B0A
:1034E00001D001238DE000233B61FB681B685B6911
:1034F0003B61FB681B689B693B613B6966E07A69DD
:10350000396AF86800F0DEF90346002B0DD0FB683D
:103510001B6C042B07D1FB681B681A68FB681B68CF
:1035200042F400721A6001236BE0FB685B6A1A7850
:10353000FB681B681A61FB685B6A5A1CFB685A626D
:10354000FB685B8D9BB2013B9AB2FB685A85FB68B6
:103550001B8D013B9AB2FB681A85FB681B685B698F
:1035600003F00403042B1BD1FB681B8D002B17D029
:10357000FB685B6A1A78FB681B681A61FB685B6A08
:103580005A1CFB685A62FB685B8D9BB2013B9AB286
:10359000FB685A85FB681B8D013B9AB2FB681A8554
:1035A0007A69396AF86800F0CEF90346002B0DD02D
:1035B000FB681B6C042B07D1FB681B681A68FB684F
:1035C0001B6842F400721A6001231AE0FB681B8D2D
:1035D000002B94D1FB681B681A68FB681B6842F4D7
:1035E00000721A60FB68202283F83D20FB680022ED
:1035F00083F83E20FB68002283F83C20002300E093
:10360000022318461837BD4680BD00BF02001000D7
:103610000000FFFF80B588B002AFF8607A603B60C1
:103620000B467B81FB68DB6A7B617B69082B06D0DC
:103630007B69012B03D07B6913F5803F08D1FB68C0
:103640001B681A68FB681B6842F480721A600BE002
:10365000FB681B6B122B07D1FB681B681A68FB68A1
:103660001B6842F480721A603B6800937B680022FA
:103670004FF00111F86800F04FF80346002B0DD011
:10368000FB681B681B6803F48073B3F5807F03D16C
:10369000FB684FF400721A64032335E0FB681B6972
:1036A000B3F5804F08D17B89DBB21A46FB681B68F3
:1036B00002F0FE021A611BE07B89DB11DBB203F032
:1036C0000603DBB263F00F03DAB2FB681B681A6112
:1036D0003B687A680E49F86800F075F80346002BDD
:1036E00001D0012310E07B89DAB2FB681B681A6104
:1036F0003B687A680749F86800F065F80346002BD4
:1037000001D0012300E0002318461837BD4680BDD4
:10371000080001000200010080B584B000AFF8602D
:10372000B9603B601346FB7125E03B68B3F1FF3F96
:1037300021D0FFF78DF90246BB69D31A3A689A4245
:1037400002D33B68002B16D1FB6800221A63FB688A
:10375000202283F83D20FB68002283F83E20FB688E
:103760001B6C43F02002FB681A64FB68002283F89C
:103770003C20012323E0BB681B0CDBB2012B0DD1E5
:10378000FB681B685B69DA43BB6813409BB2002B84
:103790000CBF01230023DBB21A460CE0FB681B6858
:1037A0009B69DA43BB6813409BB2002B0CBF01231B
:1037B0000023DBB21A46FB799A42B6D000231846A2
:1037C0001037BD4680BD80B584B000AFF860B960E9
:1037D0007A603B6051E0FB681B685B6903F48063BF
:1037E000B3F5806F23D1FB681B681A68FB681B6800
:1037F00042F400721A60FB681B686FF480625A61C1
:10380000FB6800221A63FB68202283F83D20FB68D6
:10381000002283F83E20FB681B6C43F00402FB6827
:103820001A64FB68002283F83C20012346E07B6891
:10383000B3F1FF3F21D0FFF70BF902463B68D31AE3
:103840007A689A4202D37B68002B16D1FB6800226B
:103850001A63FB68202283F83D20FB68002283F86E
:103860003E20FB681B6C43F02002FB681A64FB6877
:10387000002283F83C20012320E0BB681B0CDBB254
:10388000012B0CD1FB681B685B69DA43BB681340F2
:103890009BB2002B14BF01230023DBB20BE0FB68BB
:1038A0001B689B69DA43BB6813409BB2002B14BFB3
:1038B00001230023DBB2002B8DD1002318461037E3
:1038C000BD4680BD80B584B000AFF860B9607A6055
:1038D0002DE0F86800F078F80346002B01D00123B2
:1038E0002DE0BB68B3F1FF3F21D0FFF7B1F80246EE
:1038F0007B68D31ABA689A4202D3BB68002B16D1F0
:10390000FB6800221A63FB68202283F83D20FB68D5
:10391000002283F83E20FB681B6C43F02002FB680A
:103920001A64FB68002283F83C20012307E0FB684F
:103930001B685B6903F08003802BCAD10023184603
:103940001037BD4680BD80B584B000AFF860B96067
:103950007A602DE0F86800F037F80346002B01D0BC
:1039600001232DE0BB68B3F1FF3F21D0FFF770F8D2
:1039700002467B68D31ABA689A4202D3BB68002B0E
:1039800016D1FB6800221A63FB68202283F83D20D1
:10399000FB68002283F83E20FB681B6C43F020028A
:1039A000FB681A64FB68002283F83C20012307E0CF
:1039B000FB681B685B6903F00403042BCAD1002376
:1039C00018461037BD4680BD80B483B000AF786024
:1039D0007B681B685B6903F48063B3F5806F1BD160
:1039E0007B681B686FF480625A617B6800221A63EF
:1039F0007B68202283F83D207B68002283F83E20EC
:103A00007B681B6C43F004027B681A647B680022AD
:103A100083F83C20012300E0002318460C37BD4604
:103A200080BC704780B586B000AF78607B68002BA3
:103A300001D1012372E27B681B6803F00103002BB4
:103A400000F08780924B5B6803F00C03042B0CD0D2
:103A50008F4B5B6803F00C03082B12D18C4B5B6817
:103A600003F48033B3F5803F0BD1894B1B6803F41B
:103A70000033002B6CD07B685B68002B68D101237E
:103A80004CE27B685B68B3F5803F06D1804B1B68D6
:103A90007F4A43F4803313602EE07B685B68002B21
:103AA0000CD17B4B1B687A4A23F480331360784B2C
:103AB0001B68774A23F4802313601DE07B685B68F2
:103AC000B3F5A02F0CD1724B1B68714A43F48023CD
:103AD00013606F4B1B686E4A43F4803313600BE036
:103AE0006B4B1B686A4A23F480331360684B1B6876
:103AF000674A23F4802313607B685B68002B13D034
:103B0000FEF7A6FF386108E0FEF7A2FF02463B6918
:103B1000D31A642B01D9032300E25D4B1B6803F425
:103B20000033002BF0D014E0FEF792FF386108E07C
:103B3000FEF78EFF02463B69D31A642B01D903239B
:103B4000ECE1534B1B6803F40033002BF0D100E091
:103B500000BF7B681B6803F00203002B63D04C4B53
:103B60005B6803F00C03002B0BD0494B5B6803F040
:103B70000C03082B1CD1464B5B6803F48033002BED
:103B800016D1434B1B6803F00203002B05D07B6862
:103B90001B69012B01D00123C0E13D4B1B6823F0C1
:103BA000F8027B685B69DB00394913430B603AE03C
:103BB0007B681B69002B20D0364B01221A60FEF770
:103BC00047FF386108E0FEF743FF02463B69D31A1E
:103BD000022B01D90323A1E12D4B1B6803F0020343
:103BE000002BF0D02A4B1B6823F0F8027B685B693E
:103BF000DB00274913430B6015E0264B00221A60B7
:103C0000FEF726FF386108E0FEF722FF02463B6917
:103C1000D31A022B01D9032380E11D4B1B6803F04B
:103C20000203002BF0D17B681B6803F00803002B14
:103C30003AD07B689B69002B19D0174B01221A6080
:103C4000FEF706FF386108E0FEF702FF02463B6917
:103C5000D31A022B01D9032360E10D4B5B6A03F0F9
:103C60000203002BF0D0012000F0D8FA1CE00A4B30
:103C700000221A60FEF7ECFE38610FE0FEF7E8FE66
:103C800002463B69D31A022B08D9032346E100BF41
:103C9000001002400000424280044242924B5B6AA4
:103CA00003F00203002BE9D17B681B6803F00403D7
:103CB000002B00F0A6800023FB758B4BDB6903F023
:103CC0008053002B0DD1884BDB69874A43F080532A
:103CD000D361854BDB6903F08053BB60BB68012374
:103CE000FB75824B1B6803F48073002B18D17F4B4C
:103CF0001B687E4A43F480731360FEF7A9FE3861A7
:103D000008E0FEF7A5FE02463B69D31A642B01D9F1
:103D1000032303E1754B1B6803F48073002BF0D081
:103D20007B68DB68012B06D16F4B1B6A6E4A43F040
:103D3000010313622DE07B68DB68002B0CD16A4B1A
:103D40001B6A694A23F001031362674B1B6A664AC8
:103D500023F0040313621CE07B68DB68052B0CD1A5
:103D6000614B1B6A604A43F0040313625E4B1B6A9B
:103D70005D4A43F0010313620BE05B4B1B6A5A4A36
:103D800023F001031362584B1B6A574A23F00403C4
:103D900013627B68DB68002B15D0FEF759FE386193
:103DA0000AE0FEF755FE02463B69D31A41F288321B
:103DB000934201D90323B1E04B4B1B6A03F002038A
:103DC000002BEED014E0FEF743FE38610AE0FEF768
:103DD0003FFE02463B69D31A41F28832934201D931
:103DE00003239BE0404B1B6A03F00203002BEED140
:103DF000FB7D012B05D13C4BDB693B4A23F0805313
:103E0000D3617B68DB69002B00F08780364B5B68F1
:103E100003F00C03082B61D07B68DB69022B46D1D1
:103E2000334B00221A60FEF713FE386108E0FEF7FC
:103E30000FFE02463B69D31A022B01D903236DE022
:103E4000294B1B6803F00073002BF0D17B681B6AC1
:103E5000B3F5803F08D1244B5B6823F400327B68C4
:103E60009B68214913434B601F4B5B6823F474121A
:103E70007B68196A7B685B6A0B431B4913434B6081
:103E80001B4B01221A60FEF7E3FD386108E0FEF7E4
:103E9000DFFD02463B69D31A022B01D903233DE023
:103EA000114B1B6803F00073002BF0D035E0104B72
:103EB00000221A60FEF7CCFD386108E0FEF7C8FD6D
:103EC00002463B69D31A022B01D9032326E0064B95
:103ED0001B6803F00073002BF0D11EE07B68DB69E8
:103EE000012B07D1012319E00010024000700040AF
:103EF000600042420B4B5B68FB60FB6803F480325E
:103F00007B681B6A9A4206D1FB6803F470127B68D7
:103F10005B6A9A4201D0012300E00023184618375B
:103F2000BD4680BD0010024080B584B000AF78600F
:103F300039607B68002B01D10123D0E06A4B1B68FC
:103F400003F007033A689A4210D9674B1B6823F0C5
:103F5000070265493B6813430B60634B1B6803F022
:103F600007033A689A4201D00123B8E07B681B68D6
:103F700003F00203002B20D07B681B6803F00403CE
:103F8000002B05D0594B5B68584A43F4E0635360FB
:103F90007B681B6803F00803002B05D0534B5B685C
:103FA000524A43F460535360504B5B6823F0F00275
:103FB0007B689B684D4913434B607B681B6803F02B
:103FC0000103002B40D07B685B68012B07D1474B76
:103FD0001B6803F40033002B15D101237FE07B68BD
:103FE0005B68022B07D1414B1B6803F00073002B69
:103FF00009D1012373E03D4B1B6803F00203002B42
:1040000001D101236BE0394B5B6823F003027B682D
:104010005B68364913434B60FEF71AFDF8600AE00F
:10402000FEF716FD0246FB68D31A41F2883293422E
:1040300001D9032353E02D4B5B6803F00C027B682E
:104040005B689B009A42EBD1274B1B6803F0070388
:104050003A689A4210D2244B1B6823F00702224987
:104060003B6813430B60204B1B6803F007033A685F
:104070009A4201D0012332E07B681B6803F00403FD
:10408000002B08D0194B5B6823F4E0627B68DB6887
:10409000164913434B607B681B6803F00803002B31
:1040A00009D0124B5B6823F460527B681B69DB000C
:1040B0000E4913434B6000F021F802460B4B5B683E
:1040C0001B0903F00F030A49CB5C22FA03F3094AE8
:1040D0001360094B1B681846FEF778FC002318464E
:1040E0001037BD4680BD00BF0020024000100240D6
:1040F00028A30008000000200400002090B48AB02B
:1041000000AF294B3C1D0FCB84E80F0040F2012388
:104110003B800023FB610023BB6100237B62002303
:104120007B6100233B62214B5B68FB61FB6903F011
:104130000C03042B02D0082B03D02BE01C4B3B625A
:104140002BE0FB699B0C03F00F0328333B4413F86F
:10415000243C7B61FB6903F48033002B12D0134BAA
:104160005B685B0C03F0010328333B4413F8283CE5
:10417000BB617B690E4A03FB02F2BB69B2FBF3F33E
:104180007B6204E07B690B4A02FB03F37B627B6A80
:104190003B6202E0064B3B6200BF3B6A1846283791
:1041A000BD4690BC704700BF18A100080010024037
:1041B00000127A0000093D0080B400AF024B1B687A
:1041C0001846BD4680BC70470000002080B500AF97
:1041D000FFF7F2FF0246054B5B681B0A03F007037B
:1041E0000349CB5C22FA03F3184680BD001002405D
:1041F00038A3000880B500AFFFF7DEFF0246054B8D
:104200005B68DB0A03F007030349CB5C22FA03F384
:10421000184680BD0010024038A3000880B485B065
:1042200000AF78600A4B1B680A4AA2FB03235B0AB3
:104230007A6802FB03F3FB6000BFFB685A1EFA605A
:10424000002BF9D100BF00BF1437BD4680BC7047BA
:1042500000000020D34D621080B582B000AF7860BE
:104260007B68002B01D1012376E07B685B6A002B21
:1042700008D17B685B68B3F5827F09D07B68002238
:10428000DA6105E07B6800221A617B6800225A61CE
:104290007B6800229A627B6893F85130DBB2002B76
:1042A00006D17B68002283F850207868FEF784F9F5
:1042B0007B68022283F851207B681B681A687B6840
:1042C0001B6822F040021A607B685B6803F482720C
:1042D0007B689B6803F404431A437B68DB6803F440
:1042E00000631A437B681B6903F002031A437B686F
:1042F0005B6903F001031A437B689B6903F4007355
:104300001A437B68DB6903F038031A437B681B6A36
:1043100003F0800342EA03017B689B6A03F40052C6
:104320007B681B680A431A607B689B691A0C7B6870
:104330001B6802F004025A607B681B68DA697B68BC
:104340001B6822F40062DA617B6800225A657B6890
:10435000012283F85120002318460837BD4680BD4E
:1043600080B588B000AFF860B9603B601346FB8051
:104370000023FB77FB6893F85030012B01D1022317
:1043800026E1FB68012283F85020FEF761FBB8614B
:10439000FB88FB82FB6893F85130DBB2012B02D023
:1043A0000223FB770BE1BB68002B02D0FB88002BBC
:1043B00002D10123FB7702E1FB68032283F851203D
:1043C000FB6800225A65FB68BA681A63FB68FA88C2
:1043D0009A86FB68FA88DA86FB6800229A63FB6893
:1043E00000229A87FB680022DA87FB6800225A6461
:1043F000FB6800221A64FB689B68B3F5004F0FD17D
:10440000FB681B681A68FB681B6822F040021A6090
:10441000FB681B681A68FB681B6842F480421A60DC
:10442000FB681B681B6803F04003402B07D0FB6848
:104430001B681A68FB681B6842F040021A60FB6840
:10444000DB68B3F5006F4BD1FB685B68002B02D0D3
:10445000FB8A012B3ED1FB681B6B1A88FB681B682B
:10446000DA60FB681B6B9A1CFB681A63FB68DB8EC7
:104470009BB2013B9AB2FB68DA862BE0FB681B68B3
:104480009B6803F00203022B12D1FB681B6B1A8896
:10449000FB681B68DA60FB681B6B9A1CFB681A637D
:1044A000FB68DB8E9BB2013B9AB2FB68DA8611E0B7
:1044B000FEF7CEFA0246BB69D31A3A689A4203D88D
:1044C0003B68B3F1FF3F02D13B68002B02D10323CD
:1044D000FB7774E0FB68DB8E9BB2002BCED14CE007
:1044E000FB685B68002B02D0FB8A012B40D1FB6884
:1044F0001A6BFB681B680C3312781A70FB681B6B15
:104500005A1CFB681A63FB68DB8E9BB2013B9AB2B4
:10451000FB68DA862CE0FB681B689B6803F00203EB
:10452000022B13D1FB681A6BFB681B680C331278E3
:104530001A70FB681B6B5A1CFB681A63FB68DB8EE6
:104540009BB2013B9AB2FB68DA8611E0FEF780FA73
:104550000246BB69D31A3A689A4203D83B68B3F162
:10456000FF3F02D13B68002B02D10323FB7726E0FB
:10457000FB68DB8E9BB2002BCDD1BA693968F86835
:1045800000F0C4FB0346002B02D0FB6820225A65D2
:10459000FB689B68002B0AD100233B61FB681B680A
:1045A000DB683B61FB681B689B683B613B69FB68A0
:1045B0005B6D002B02D00123FB7700E000BFFB689E
:1045C000012283F85120FB68002283F85020FB7FF2
:1045D00018462037BD4680BD80B588B002AFF86070
:1045E000B9603B601346FB800023FB75FB685B688A
:1045F000B3F5827F12D1FB689B68002B0ED1FB685C
:10460000042283F85120FA883B6800931346BA6865
:10461000B968F86800F0F1F80346EAE0FB6893F83F
:104620005030012B01D10223E3E0FB68012283F823
:104630005020FEF70DFA3861FB6893F85130DBB279
:10464000012B02D00223FB75CAE0BB68002B02D00D
:10465000FB88002B02D10123FB75C1E0FB6804221B
:1046600083F85120FB6800225A65FB68BA689A6398
:10467000FB68FA889A87FB68FA88DA87FB68002269
:104680001A63FB6800229A86FB680022DA86FB68C0
:1046900000221A64FB6800225A64FB689B68B3F529
:1046A000004F0FD1FB681B681A68FB681B6822F07B
:1046B00040021A60FB681B681A68FB681B6822F4DA
:1046C00080421A60FB681B681B6803F04003402BA4
:1046D00007D0FB681B681A68FB681B6842F0400241
:1046E0001A60FB68DB68002B62D12EE0FB681B6858
:1046F0009B6803F00103012B15D1FB681B6803F1D4
:104700000C02FB689B6B1278D2B21A70FB689B6B31
:104710005A1CFB689A63FB68DB8F9BB2013B9AB221
:10472000FB68DA8711E0FEF793F902463B69D31A7A
:104730003A689A4203D83B68B3F1FF3F02D13B6825
:10474000002B02D10323FB754AE0FB68DB8F9BB291
:10475000002BCBD131E0FB681B689B6803F00103A1
:10476000012B13D1FB681B68DA68FB689B6B92B264
:104770001A80FB689B6B9A1CFB689A63FB68DB8F53
:104780009BB2013B9AB2FB68DA8711E0FEF760F951
:1047900002463B69D31A3A689A4203D83B68B3F1A0
:1047A000FF3F02D13B68002B02D10323FB7517E0CA
:1047B000FB68DB8F9BB2002BCDD13A693968F86872
:1047C00000F052FA0346002B02D0FB6820225A6503
:1047D000FB685B6D002B02D00123FB7500E000BF7E
:1047E000FB68012283F85120FB68002283F85020E7
:1047F000FB7D18461837BD4680BD80B58CB000AF34
:10480000F860B9607A607B800123FB62002387F83F
:104810002B30FB6893F85030012B01D102238AE141
:10482000FB68012283F85020FEF712F97862FB68DA
:1048300093F8513087F82330FB685B68FB617B8815
:104840007B8397F82330012B0FD0FB69B3F5827F70
:1048500007D1FB689B68002B03D197F82330042B0A
:1048600003D0022387F82B305BE1BB68002B05D017
:104870007B68002B02D07B88002B03D1012387F8B3
:104880002B304EE1FB6893F85130DBB2042B03D0A0
:10489000FB68052283F85120FB6800225A65FB68FB
:1048A0007A689A63FB687A88DA87FB687A889A87DD
:1048B000FB68BA681A63FB687A88DA86FB687A88CC
:1048C0009A86FB6800221A64FB6800225A64FB681F
:1048D0001B681B6803F04003402B07D0FB681B6874
:1048E0001A68FB681B6842F040021A60FB68DB68CC
:1048F000B3F5006F78D1FB685B68002B02D07B8B2F
:10490000012B66D1FB681B6B1A88FB681B68DA6099
:10491000FB681B6B9A1CFB681A63FB68DB8E9BB2FF
:10492000013B9AB2FB68DA8653E0FB681B689B6820
:1049300003F00203022B1BD1FB68DB8E9BB2002B22
:1049400016D0FB6A012B13D1FB681B6B1A88FB681E
:104950001B68DA60FB681B6B9A1CFB681A63FB68B8
:10496000DB8E9BB2013B9AB2FB68DA860023FB62C6
:10497000FB681B689B6803F00103012B19D1FB68DE
:10498000DB8F9BB2002B14D0FB681B68DA68FB68D6
:104990009B6B92B21A80FB689B6B9A1CFB689A63B4
:1049A000FB68DB8F9BB2013B9AB2FB68DA8701237D
:1049B000FB62FEF74DF802467B6AD31ABA6B9A4245
:1049C00007D8BB6BB3F1FF3F03D0032387F82B302D
:1049D000A7E0FB68DB8E9BB2002BA6D1FB68DB8FC8
:1049E0009BB2002BA1D17CE0FB685B68002B02D05E
:1049F0007B8B012B6BD1FB681A6BFB681B680C333C
:104A000012781A70FB681B6B5A1CFB681A63FB68F0
:104A1000DB8E9BB2013B9AB2FB68DA8657E0FB68FB
:104A20001B689B6803F00203022B1CD1FB68DB8E22
:104A30009BB2002B17D0FB6A012B14D1FB681A6BB9
:104A4000FB681B680C3312781A70FB681B6B5A1CCE
:104A5000FB681A63FB68DB8E9BB2013B9AB2FB6872
:104A6000DA860023FB62FB681B689B6803F0010386
:104A7000012B19D1FB68DB8F9BB2002B14D0FB6894
:104A80001B68DA68FB689B6BD2B21A70FB689B6B81
:104A90005A1CFB689A63FB68DB8F9BB2013B9AB29E
:104AA000FB68DA870123FB62FDF7D2FF02467B6ACF
:104AB000D31ABA6B9A4203D8BB6BB3F1FF3F02D152
:104AC000BB6B002B03D1032387F82B3029E0FB6855
:104AD000DB8E9BB2002BA2D1FB68DB8F9BB2002B3D
:104AE0009DD17A6AB96BF86800F010F90346002B83
:104AF00006D0012387F82B30FB6820225A6510E08E
:104B0000FB689B68002B0BD100237B61FB681B6853
:104B1000DB687B61FB681B689B687B617B6900E0ED
:104B200000BFFB68012283F85120FB68002283F854
:104B3000502097F82B3018463037BD4680BD80B4E2
:104B400083B000AF78607B6893F85130DBB21846D1
:104B50000C37BD4680BC704780B588B000AFF860A8
:104B6000B9603B601346FB71FDF772FF0246BB6AFA
:104B70009B1A3A681344FB61FDF76AFFB861394B31
:104B80001B685B011B0DFA6902FB03F37B6154E0B8
:104B90003B68B3F1FF3F50D0FDF75AFF0246BB69B7
:104BA000D31AFA699A4202D9FB69002B3DD1FB68FE
:104BB0001B685A68FB681B6822F0E0025A60FB68B9
:104BC0005B68B3F5827F11D1FB689B68B3F5004F3A
:104BD00004D0FB689B68B3F5806F07D1FB681B6846
:104BE0001A68FB681B6822F040021A60FB689B6A27
:104BF000B3F5005F0FD1FB681B681A68FB681B6880
:104C000022F400521A60FB681B681A68FB681B6874
:104C100042F400521A60FB68012283F85120FB68BD
:104C2000002283F85020032317E07B69002B01D179
:104C30000023FB617B69013B7B61FB681B689A6811
:104C4000BB681340BA689A420CBF01230023DBB251
:104C50001A46FB799A429BD1002318462037BD465D
:104C600080BD00BF0000002080B586B002AFF860B4
:104C7000B9607A60FB685B68B3F5827F11D1FB682D
:104C80009B68B3F5004F04D0FB689B68B3F5806F59
:104C900007D1FB681B681A68FB681B6822F040029A
:104CA0001A60FB685B68B3F5827F17D1FB689B686D
:104CB000B3F5806F12D17B680093BB68002201219D
:104CC000F868FFF749FF0346002B1AD0FB685B6DBD
:104CD00043F02002FB685A65032313E07B680093CE
:104CE000BB6800228021F868FFF736FF0346002BDF
:104CF00007D0FB685B6D43F02002FB685A65032315
:104D000000E0002318461037BD4680BD80B586B050
:104D100002AFF860B9607A607B680093BB680022DC
:104D20008021F868FFF718FF0346002B07D0FB68C7
:104D30005B6D43F02002FB685A65032300E000230B
:104D400018461037BD4680BD80B582B000AF786090
:104D50007B68002B01D101233FE07B6893F83D3055
:104D6000DBB2002B06D17B68002283F83C207868F8
:104D7000FDF76CFC7B68242283F83D207B681B6870
:104D8000DA687B681B6822F40052DA60786800F009
:104D900085FC7B681B681A697B681B6822F490425B
:104DA0001A617B681B685A697B681B6822F02A02BB
:104DB0005A617B681B68DA687B681B6842F40052A2
:104DC000DA607B6800221A647B68202283F83D2029
:104DD0007B68202283F83E20002318460837BD4612
:104DE00080BD80B58AB002AFF860B9603B60134601
:104DF000FB8000237B61FB6893F83D30DBB2202B06
:104E00007CD1BB68002B02D0FB88002B01D1012391
:104E100075E0FB6893F83C30012B01D102236EE072
:104E2000FB68012283F83C20FB6800221A64FB68BF
:104E3000212283F83D20FDF70BFE7861FB68FA889C
:104E40009A84FB68FA88DA84FB689B68B3F5805F14
:104E500008D1FB681B69002B04D10023FB61BB68F0
:104E6000BB6103E0BB68FB610023BB61FB68002200
:104E700083F83C202AE03B6800937B690022802174
:104E8000F86800F038FA0346002B01D0032336E01F
:104E9000FB69002B0BD1BB691B881A46FB681B689A
:104EA000C2F308025A60BB690233BB6107E0FB69C9
:104EB0001A78FB681B685A60FB690133FB61FB6869
:104EC000DB8C9BB2013B9AB2FB68DA84FB68DB8C1B
:104ED0009BB2002BCFD13B6800937B69002240211D
:104EE000F86800F008FA0346002B01D0032306E01F
:104EF000FB68202283F83D20002300E002231846AF
:104F00002037BD4680BD80B584B000AFF860B96081
:104F10001346FB80FB6893F83E30DBB2202B1DD19B
:104F2000BB68002B02D0FB88002B01D1012316E0C7
:104F3000FB6893F83C30012B01D102230FE0FB68A2
:104F4000012283F83C20FB6800221A63FB881A4682
:104F5000B968F86800F019FA034600E00223184621
:104F60001037BD4680BD000080B58AB000AF7860C4
:104F70007B681B681B687B627B681B68DB683B6225
:104F80007B681B685B69FB610023BB6100237B615D
:104F90007B6A03F00F03BB61BB69002B0DD17B6AF9
:104FA00003F02003002B08D03B6A03F02003002B02
:104FB00003D0786800F0C9FA7BE1BB69002B00F0F0
:104FC000B180FB6903F00103002B05D13B6A03F4B8
:104FD0009073002B00F0A6807B6A03F00103002B86
:104FE0000AD03B6A03F48073002B05D07B681B6CEE
:104FF00043F001027B681A647B6A03F00403002B10
:105000000AD0FB6903F00103002B05D07B681B6C01
:1050100043F002027B681A647B6A03F00203002BF0
:105020000AD0FB6903F00103002B05D07B681B6CE1
:1050300043F004027B681A647B6A03F00803002BC8
:105040000FD03B6A03F02003002B04D1FB6903F06F
:105050000103002B05D07B681B6C43F008027B68C2
:105060001A647B681B6C002B00F01E817B6A03F0C6
:105070002003002B07D03B6A03F02003002B02D053
:10508000786800F062FA7B681B685B6903F0400394
:10509000002B14BF01230023DBB27B617B681B6CF8
:1050A00003F00803002B02D17B69002B31D0786814
:1050B00000F0A4F97B681B685B6903F04003002BD8
:1050C00023D07B681B685A697B681B6822F040020A
:1050D0005A617B689B6B002B13D07B689B6B764A75
:1050E0005A637B689B6B1846FDF728FE0346002B2E
:1050F00016D07B689B6B5B6B7A68926B1046984707
:105100000EE0786800F0E3F80AE0786800F0DFF875
:1051100006E0786800F0DBF87B6800221A64C3E0E0
:1051200000BFC1E07B681B6B012B40F0A1807B6A54
:1051300003F01003002B00F09B803B6A03F0100388
:10514000002B00F095800023FB607B681B681B68C8
:10515000FB607B681B685B68FB60FB687B681B68A7
:105160005B6903F04003002B4ED07B689B6B1B6890
:105170005B683B823B8A002B00F098807B689B8DAC
:105180003A8A9A4280F092807B683A8ADA857B6814
:105190009B6B9B69202B2BD07B681B68DA687B6834
:1051A0001B6822F48072DA607B681B685A697B682E
:1051B0001B6822F001025A617B681B685A697B6890
:1051C0001B6822F040025A617B68202283F83E204F
:1051D0007B6800221A637B681B68DA687B681B683F
:1051E00022F01002DA607B689B6B1846FDF76BFDBE
:1051F0007B689A8D7B68DB8D9BB2D31A9BB2194674
:10520000786800F06DF851E07B689A8D7B68DB8DE3
:105210009BB2D31A7B827B68DB8D9BB2002B47D07D
:105220007B8A002B44D07B681B68DA687B681B682C
:1052300022F49072DA607B681B685A697B681B688D
:1052400022F001025A617B68202283F83E207B68AD
:1052500000221A637B681B68DA687B681B6822F08F
:105260001002DA607B8A1946786800F039F81FE08E
:105270007B6A03F08003002B08D03B6A03F08003B5
:10528000002B03D0786800F0F9F812E07B6A03F095
:105290004003002B0DD03B6A03F04003002B08D0E5
:1052A000786800F03AF904E000BF02E000BF00E0D7
:1052B00000BF2837BD4680BD5554000880B483B078
:1052C00000AF786000BF0C37BD4680BC704780B42B
:1052D00083B000AF786000BF0C37BD4680BC70471C
:1052E00080B483B000AF78600B467B8000BF0C3782
:1052F000BD4680BC704780B584B000AFF860B9602F
:105300003B601346FB712CE0BB69B3F1FF3F28D033
:10531000BB69002B07D0FDF79BFB02463B68D31A05
:10532000BA699A421DD2FB681B68DA68FB681B6881
:1053300022F4D072DA60FB681B685A69FB681B684C
:1053400022F001025A61FB68202283F83D20FB68AD
:10535000202283F83E20FB68002283F83C200323B0
:105360000FE0FB681B681A68BB681340BA689A4272
:105370000CBF01230023DBB21A46FB799A42C3D04B
:10538000002318461037BD4680BD80B485B000AFFD
:10539000F860B9601346FB80FB68BA689A62FB68E4
:1053A000FA889A85FB68FA88DA85FB6800221A6415
:1053B000FB68222283F83E20FB68002283F83C2011
:1053C000FB681B68DA68FB681B6842F48072DA606D
:1053D000FB681B685A69FB681B6842F001025A614E
:1053E000FB681B68DA68FB681B6842F02002DA6021
:1053F000002318461437BD4680BC704780B483B084
:1054000000AF78607B681B68DA687B681B6822F4F1
:105410009072DA607B681B685A697B681B6822F0AF
:1054200001025A617B681B6B012B07D17B681B68EB
:10543000DA687B681B6822F01002DA607B68202241
:1054400083F83E207B6800221A6300BF0C37BD46FC
:1054500080BC704780B584B000AF78607B685B6AC1
:10546000FB60FB680022DA85FB680022DA84F868BA
:10547000FFF72DFF00BF1037BD4680BD80B485B05B
:1054800000AF78607B6893F83D30DBB2212B3ED1D2
:105490007B689B68B3F5805F14D17B681B69002B28
:1054A00010D17B681B6AFB60FB681B881A467B680F
:1054B0001B68C2F308025A607B681B6A9A1C7B68EF
:1054C0001A6208E07B681B6A591C7A6811621A78B4
:1054D0007B681B685A607B68DB8C9BB2013B9BB28C
:1054E0007A681946D184002B0FD17B681B68DA6873
:1054F0007B681B6822F08002DA607B681B68DA68D0
:105500007B681B6842F04002DA60002300E002235F
:1055100018461437BD4680BC704780B582B000AFD6
:1055200078607B681B68DA687B681B6822F0400241
:10553000DA607B68202283F83D207868FFF7BEFEA2
:10554000002318460837BD4680BD80B586B000AF41
:1055500078607B6893F83E30DBB2222B40F0998074
:105560007B689B68B3F5805F17D17B681B69002B54
:1055700013D100237B617B689B6A3B617B681B685E
:105580005B689BB2C3F308039AB23B691A807B68DD
:105590009B6A9A1C7B689A6226E07B689B6A7B61A7
:1055A00000233B617B689B68B3F5805F07D07B6815
:1055B0009B68002B0AD17B681B69002B06D17B6896
:1055C0001B685B68DAB27B691A7008E07B681B684D
:1055D0005B68DBB203F07F03DAB27B691A707B6829
:1055E0009B6A5A1C7B689A627B68DB8D9BB2013B8D
:1055F0009BB27A681946D185002B48D17B681B681D
:10560000DA687B681B6822F02002DA607B681B681E
:10561000DA687B681B6822F48072DA607B681B683A
:105620005A697B681B6822F001025A617B6820225C
:1056300083F83E207B681B6B012B23D17B68002203
:105640001A637B681B68DA687B681B6822F01002AB
:10565000DA607B681B681B6803F01003102B0AD10B
:105660000023FB607B681B681B68FB607B681B6812
:105670005B68FB60FB687B689B8D19467868FFF769
:105680002FFE02E07868FCF731FD002302E00023E2
:1056900000E0022318461837BD4680BD80B584B0AF
:1056A00000AF78607B681B681B6923F440517B68FE
:1056B000DA687B681B680A431A617B689A687B68B2
:1056C0001B691A437B685B691343BB607B681B687B
:1056D000DB6823F4B05323F00C037A681268B968CE
:1056E0000B43D3607B681B685B6923F440717B6864
:1056F0009A697B681B680A435A617B681B682C4A5D
:10570000934203D1FEF776FDF86002E0FEF75EFDFE
:10571000F860FA6813469B0013449A001A447B68A9
:105720005B689B00B2FBF3F3224AA2FB03235B09F5
:105730001901FA6813469B0013449A001A447B68C7
:105740005B689B00B2FBF3F21A4BA3FB02035B09FD
:10575000642000FB03F3D31A1B013233154AA2FB6A
:1057600003235B0903F0F0031944FA6813469B0016
:1057700013449A001A447B685B689B00B2FBF3F207
:105780000C4BA3FB02035B09642000FB03F3D31A59
:105790001B013233074AA2FB03235B0903F00F020C
:1057A0007B681B680A449A6000BF1037BD4680BD05
:1057B000003801401F85EB51014B1868704700BF4E
:1057C0000C00002070B500260C4D0D4C641BA4107D
:1057D000A64209D104F052FC00260A4D0A4C641B73
:1057E000A410A64205D170BD55F8043B9847013678
:1057F000EEE755F8043B98470136F2E7E4A70008C6
:10580000E4A70008E4A70008E8A70008034602444C
:10581000934200D1704703F8011BF9E7002B2DE9F3
:10582000F0471F46BBBF03F100431F4600232D2353
:1058300088B01446129A109D1370149BDDF84CA08A
:1058400023F02008B8F1460F05D0B8F1450F00D17C
:105850000135022300E0032307AA049206AACDE93A
:1058600002A2CDE9003522463B4601F085FDB8F1A4
:10587000470F064602D1119BDB0722D5B8F1460F30
:1058800006EB050910D13378302B0AD10022002312
:1058900020463946FBF788F818B9C5F10105CAF862
:1058A0000050DAF80030994400220023204639469F
:1058B000FBF77AF808B1CDF81C903022079B4B45D6
:1058C00007D33046079B159A9B1B136008B0BDE8B1
:1058D000F087591C07911A70F0E70346F7B50029C5
:1058E00003F8022BB6BF2D222B2249420929427010
:1058F0002BDD0DF10704A4460A2791FBF7F60A46B3
:10590000A64607FB1615632A05F13005314604F15A
:10591000FF340EF8015CF0DC3031AEF1020504F822
:10592000011C2946441C61450AD30DF10902A2EB72
:105930000E02654588BF00221344181A03B0F0BD5B
:1059400011F8012B04F8012FEDE73023303183707B
:10595000C170031DF1E700002DE9F04F91B00C4636
:10596000DDF8688016461F46054602F059FE0368BA
:1059700018460993FAF7ECFB00230E93D8F8003091
:105980000A90073323F0070303F1080294F81890F4
:10599000D4F800B0C8F80020D3E90023C4E91223EA
:1059A000D4E9128A2AF000430B934FF0FF324046AD
:1059B0009C4B0B99FBF72AF870BB4FF0FF32404627
:1059C000984B0B99FBF704F830BB002200234046AC
:1059D0005146FAF7F3FF10B12D2384F84330924B70
:1059E0009248B9F1470F94BF9846804603234FF081
:1059F000000A23612BF00403236033462146284626
:105A000000970FAA00F0D4F9013040F090804FF0D9
:105A1000FF3011B0BDE8F08F424653464046514634
:105A2000FAF7F4FF48B1BAF1000FB8BF2D23804850
:105A3000B8BF84F843307F4BD3E7636809F0DF01D8
:105A40005A1C42D106236360002206920EAACDE9B9
:105A500004920DAA4BF4806303920DF13302CDE959
:105A600001322360636842460093284653460B91F7
:105A7000FFF7D4FE0B99804647290D9908D1C81C21
:105A800002DB6368994240DDA9F102095FFA89F9F6
:105A9000B9F1650F1FD84A46013904F150000D9144
:105AA000FFF71BFF0E9A82461318012A236102DCBE
:105AB0002268D20701D5013323619DF83330002BD2
:105AC0009BD02D2384F8433097E74729BCD1002B86
:105AD000BAD10123B7E7B9F1660F18D1002963687D
